{
  "_format": "hh-sol-artifact-1",
  "contractName": "MakeNFT",
  "sourceName": "contracts/MyNFTWebsite.sol",
  "abi": [
    {
      "inputs": [],
      "stateMutability": "nonpayable",
      "type": "constructor"
    },
    {
      "anonymous": false,
      "inputs": [
        {
          "indexed": true,
          "internalType": "address",
          "name": "owner",
          "type": "address"
        },
        {
          "indexed": true,
          "internalType": "address",
          "name": "approved",
          "type": "address"
        },
        {
          "indexed": true,
          "internalType": "uint256",
          "name": "tokenId",
          "type": "uint256"
        }
      ],
      "name": "Approval",
      "type": "event"
    },
    {
      "anonymous": false,
      "inputs": [
        {
          "indexed": true,
          "internalType": "address",
          "name": "owner",
          "type": "address"
        },
        {
          "indexed": true,
          "internalType": "address",
          "name": "operator",
          "type": "address"
        },
        {
          "indexed": false,
          "internalType": "bool",
          "name": "approved",
          "type": "bool"
        }
      ],
      "name": "ApprovalForAll",
      "type": "event"
    },
    {
      "anonymous": false,
      "inputs": [
        {
          "indexed": false,
          "internalType": "address",
          "name": "sender",
          "type": "address"
        },
        {
          "indexed": false,
          "internalType": "uint256",
          "name": "tokenId",
          "type": "uint256"
        }
      ],
      "name": "NewMinted",
      "type": "event"
    },
    {
      "anonymous": false,
      "inputs": [
        {
          "indexed": true,
          "internalType": "address",
          "name": "from",
          "type": "address"
        },
        {
          "indexed": true,
          "internalType": "address",
          "name": "to",
          "type": "address"
        },
        {
          "indexed": true,
          "internalType": "uint256",
          "name": "tokenId",
          "type": "uint256"
        }
      ],
      "name": "Transfer",
      "type": "event"
    },
    {
      "inputs": [
        {
          "internalType": "address",
          "name": "to",
          "type": "address"
        },
        {
          "internalType": "uint256",
          "name": "tokenId",
          "type": "uint256"
        }
      ],
      "name": "approve",
      "outputs": [],
      "stateMutability": "nonpayable",
      "type": "function"
    },
    {
      "inputs": [
        {
          "internalType": "address",
          "name": "owner",
          "type": "address"
        }
      ],
      "name": "balanceOf",
      "outputs": [
        {
          "internalType": "uint256",
          "name": "",
          "type": "uint256"
        }
      ],
      "stateMutability": "view",
      "type": "function"
    },
    {
      "inputs": [
        {
          "internalType": "uint256",
          "name": "tokenId",
          "type": "uint256"
        }
      ],
      "name": "getApproved",
      "outputs": [
        {
          "internalType": "address",
          "name": "",
          "type": "address"
        }
      ],
      "stateMutability": "view",
      "type": "function"
    },
    {
      "inputs": [
        {
          "internalType": "address",
          "name": "owner",
          "type": "address"
        },
        {
          "internalType": "address",
          "name": "operator",
          "type": "address"
        }
      ],
      "name": "isApprovedForAll",
      "outputs": [
        {
          "internalType": "bool",
          "name": "",
          "type": "bool"
        }
      ],
      "stateMutability": "view",
      "type": "function"
    },
    {
      "inputs": [],
      "name": "makeNFT",
      "outputs": [],
      "stateMutability": "payable",
      "type": "function"
    },
    {
      "inputs": [],
      "name": "name",
      "outputs": [
        {
          "internalType": "string",
          "name": "",
          "type": "string"
        }
      ],
      "stateMutability": "view",
      "type": "function"
    },
    {
      "inputs": [
        {
          "internalType": "uint256",
          "name": "tokenId",
          "type": "uint256"
        }
      ],
      "name": "ownerOf",
      "outputs": [
        {
          "internalType": "address",
          "name": "",
          "type": "address"
        }
      ],
      "stateMutability": "view",
      "type": "function"
    },
    {
      "inputs": [
        {
          "internalType": "uint256",
          "name": "tokenId",
          "type": "uint256"
        }
      ],
      "name": "pickRandomFirstWord",
      "outputs": [
        {
          "internalType": "string",
          "name": "",
          "type": "string"
        }
      ],
      "stateMutability": "view",
      "type": "function"
    },
    {
      "inputs": [
        {
          "internalType": "uint256",
          "name": "tokenId",
          "type": "uint256"
        }
      ],
      "name": "pickRandomSecondWord",
      "outputs": [
        {
          "internalType": "string",
          "name": "",
          "type": "string"
        }
      ],
      "stateMutability": "view",
      "type": "function"
    },
    {
      "inputs": [
        {
          "internalType": "uint256",
          "name": "tokenId",
          "type": "uint256"
        }
      ],
      "name": "pickRandomThirdWord",
      "outputs": [
        {
          "internalType": "string",
          "name": "",
          "type": "string"
        }
      ],
      "stateMutability": "view",
      "type": "function"
    },
    {
      "inputs": [
        {
          "internalType": "address",
          "name": "from",
          "type": "address"
        },
        {
          "internalType": "address",
          "name": "to",
          "type": "address"
        },
        {
          "internalType": "uint256",
          "name": "tokenId",
          "type": "uint256"
        }
      ],
      "name": "safeTransferFrom",
      "outputs": [],
      "stateMutability": "nonpayable",
      "type": "function"
    },
    {
      "inputs": [
        {
          "internalType": "address",
          "name": "from",
          "type": "address"
        },
        {
          "internalType": "address",
          "name": "to",
          "type": "address"
        },
        {
          "internalType": "uint256",
          "name": "tokenId",
          "type": "uint256"
        },
        {
          "internalType": "bytes",
          "name": "_data",
          "type": "bytes"
        }
      ],
      "name": "safeTransferFrom",
      "outputs": [],
      "stateMutability": "nonpayable",
      "type": "function"
    },
    {
      "inputs": [
        {
          "internalType": "address",
          "name": "operator",
          "type": "address"
        },
        {
          "internalType": "bool",
          "name": "approved",
          "type": "bool"
        }
      ],
      "name": "setApprovalForAll",
      "outputs": [],
      "stateMutability": "nonpayable",
      "type": "function"
    },
    {
      "inputs": [
        {
          "internalType": "bytes4",
          "name": "interfaceId",
          "type": "bytes4"
        }
      ],
      "name": "supportsInterface",
      "outputs": [
        {
          "internalType": "bool",
          "name": "",
          "type": "bool"
        }
      ],
      "stateMutability": "view",
      "type": "function"
    },
    {
      "inputs": [],
      "name": "symbol",
      "outputs": [
        {
          "internalType": "string",
          "name": "",
          "type": "string"
        }
      ],
      "stateMutability": "view",
      "type": "function"
    },
    {
      "inputs": [
        {
          "internalType": "uint256",
          "name": "tokenId",
          "type": "uint256"
        }
      ],
      "name": "tokenURI",
      "outputs": [
        {
          "internalType": "string",
          "name": "",
          "type": "string"
        }
      ],
      "stateMutability": "view",
      "type": "function"
    },
    {
      "inputs": [
        {
          "internalType": "address",
          "name": "from",
          "type": "address"
        },
        {
          "internalType": "address",
          "name": "to",
          "type": "address"
        },
        {
          "internalType": "uint256",
          "name": "tokenId",
          "type": "uint256"
        }
      ],
      "name": "transferFrom",
      "outputs": [],
      "stateMutability": "nonpayable",
      "type": "function"
    }
  ],
  "bytecode": "0x608060405260405180610160016040528061012f8152602001620042bb61012f9139600890805190602001906200003892919062000531565b5060405180606001604052806040518060400160405280600681526020017f4a756e696f72000000000000000000000000000000000000000000000000000081525081526020016040518060400160405280600381526020017f4d6964000000000000000000000000000000000000000000000000000000000081525081526020016040518060400160405280600681526020017f53656e696f720000000000000000000000000000000000000000000000000000815250815250600990600362000105929190620005c2565b5060405180608001604052806040518060400160405280600181526020017f200000000000000000000000000000000000000000000000000000000000000081525081526020016040518060400160405280600181526020017f2d0000000000000000000000000000000000000000000000000000000000000081525081526020016040518060400160405280600181526020017f5f00000000000000000000000000000000000000000000000000000000000000815250815260200160405180602001604052806000815250815250600a906004620001e792919062000629565b506040518060c001604052806040518060400160405280600781526020017f567565204465760000000000000000000000000000000000000000000000000081525081526020016040518060400160405280600981526020017f526561637420446576000000000000000000000000000000000000000000000081525081526020016040518060400160405280600c81526020017f536f6c696469747920446576000000000000000000000000000000000000000081525081526020016040518060400160405280600b81526020017f416e67756c61722044657600000000000000000000000000000000000000000081525081526020016040518060400160405280600d81526020017f576f72647072657373204465760000000000000000000000000000000000000081525081526020016040518060400160405280600e81526020017f50726573746173686f7020446576000000000000000000000000000000000000815250815250600b9060066200036592919062000690565b503480156200037357600080fd5b506040518060400160405280600781526020017f4d616b654e4654000000000000000000000000000000000000000000000000008152506040518060400160405280600781526020017f4d616b654e4654000000000000000000000000000000000000000000000000008152508160009080519060200190620003f892919062000531565b5080600190805190602001906200041192919062000531565b5050506200045f6040518060400160405280601e81526020017f54686973206973206d79204e465420636f6e74726163742e20576f61682100008152506200046560201b620011ce1760201c565b620008b1565b62000505816040516024016200047c9190620007c5565b6040516020818303038152906040527f41304fac000000000000000000000000000000000000000000000000000000007bffffffffffffffffffffffffffffffffffffffffffffffffffffffff19166020820180517bffffffffffffffffffffffffffffffffffffffffffffffffffffffff83818316178352505050506200050860201b60201c565b50565b60008151905060006a636f6e736f6c652e6c6f679050602083016000808483855afa5050505050565b8280546200053f906200083b565b90600052602060002090601f016020900481019282620005635760008555620005af565b82601f106200057e57805160ff1916838001178555620005af565b82800160010185558215620005af579182015b82811115620005ae57825182559160200191906001019062000591565b5b509050620005be9190620006f7565b5090565b82805482825590600052602060002090810192821562000616579160200282015b82811115620006155782518290805190602001906200060492919062000531565b5091602001919060010190620005e3565b5b50905062000625919062000716565b5090565b8280548282559060005260206000209081019282156200067d579160200282015b828111156200067c5782518290805190602001906200066b92919062000531565b50916020019190600101906200064a565b5b5090506200068c919062000716565b5090565b828054828255906000526020600020908101928215620006e4579160200282015b82811115620006e3578251829080519060200190620006d292919062000531565b5091602001919060010190620006b1565b5b509050620006f3919062000716565b5090565b5b8082111562000712576000816000905550600101620006f8565b5090565b5b808211156200073a57600081816200073091906200073e565b5060010162000717565b5090565b5080546200074c906200083b565b6000825580601f1062000760575062000781565b601f016020900490600052602060002090810190620007809190620006f7565b5b50565b60006200079182620007e9565b6200079d8185620007f4565b9350620007af81856020860162000805565b620007ba81620008a0565b840191505092915050565b60006020820190508181036000830152620007e1818462000784565b905092915050565b600081519050919050565b600082825260208201905092915050565b60005b838110156200082557808201518184015260208101905062000808565b8381111562000835576000848401525b50505050565b600060028204905060018216806200085457607f821691505b602082108114156200086b576200086a62000871565b5b50919050565b7f4e487b7100000000000000000000000000000000000000000000000000000000600052602260045260246000fd5b6000601f19601f8301169050919050565b6139fa80620008c16000396000f3fe6080604052600436106100fe5760003560e01c806370a0823111610095578063b187301f11610064578063b187301f14610338578063b88d4fde14610375578063c575757a1461039e578063c87b56dd146103db578063e985e9c514610418576100fe565b806370a082311461029d57806395d89b41146102da578063a22cb46514610305578063b036b4bd1461032e576100fe565b806323b872dd116100d157806323b872dd146101d15780632de38d68146101fa57806342842e0e146102375780636352211e14610260576100fe565b806301ffc9a71461010357806306fdde0314610140578063081812fc1461016b578063095ea7b3146101a8575b600080fd5b34801561010f57600080fd5b5061012a600480360381019061012591906125ee565b610455565b6040516101379190613250565b60405180910390f35b34801561014c57600080fd5b50610155610537565b604051610162919061326b565b60405180910390f35b34801561017757600080fd5b50610192600480360381019061018d9190612640565b6105c9565b60405161019f91906131c0565b60405180910390f35b3480156101b457600080fd5b506101cf60048036038101906101ca91906125b2565b61064e565b005b3480156101dd57600080fd5b506101f860048036038101906101f391906124ac565b610766565b005b34801561020657600080fd5b50610221600480360381019061021c9190612640565b6107c6565b60405161022e919061326b565b60405180910390f35b34801561024357600080fd5b5061025e600480360381019061025991906124ac565b6108e4565b005b34801561026c57600080fd5b5061028760048036038101906102829190612640565b610904565b60405161029491906131c0565b60405180910390f35b3480156102a957600080fd5b506102c460048036038101906102bf9190612447565b6109b6565b6040516102d191906134eb565b60405180910390f35b3480156102e657600080fd5b506102ef610a6e565b6040516102fc919061326b565b60405180910390f35b34801561031157600080fd5b5061032c60048036038101906103279190612576565b610b00565b005b610336610b16565b005b34801561034457600080fd5b5061035f600480360381019061035a9190612640565b610d4a565b60405161036c919061326b565b60405180910390f35b34801561038157600080fd5b5061039c600480360381019061039791906124fb565b610e68565b005b3480156103aa57600080fd5b506103c560048036038101906103c09190612640565b610eca565b6040516103d2919061326b565b60405180910390f35b3480156103e757600080fd5b5061040260048036038101906103fd9190612640565b610fe8565b60405161040f919061326b565b60405180910390f35b34801561042457600080fd5b5061043f600480360381019061043a9190612470565b61113a565b60405161044c9190613250565b60405180910390f35b60007f80ac58cd000000000000000000000000000000000000000000000000000000007bffffffffffffffffffffffffffffffffffffffffffffffffffffffff1916827bffffffffffffffffffffffffffffffffffffffffffffffffffffffff1916148061052057507f5b5e139f000000000000000000000000000000000000000000000000000000007bffffffffffffffffffffffffffffffffffffffffffffffffffffffff1916827bffffffffffffffffffffffffffffffffffffffffffffffffffffffff1916145b80610530575061052f82611267565b5b9050919050565b6060600080546105469061378a565b80601f01602080910402602001604051908101604052809291908181526020018280546105729061378a565b80156105bf5780601f10610594576101008083540402835291602001916105bf565b820191906000526020600020905b8154815290600101906020018083116105a257829003601f168201915b5050505050905090565b60006105d4826112d1565b610613576040517f08c379a000000000000000000000000000000000000000000000000000000000815260040161060a9061342b565b60405180910390fd5b6004600083815260200190815260200160002060009054906101000a900473ffffffffffffffffffffffffffffffffffffffff169050919050565b600061065982610904565b90508073ffffffffffffffffffffffffffffffffffffffff168373ffffffffffffffffffffffffffffffffffffffff1614156106ca576040517f08c379a00000000000000000000000000000000000000000000000000000000081526004016106c19061348b565b60405180910390fd5b8073ffffffffffffffffffffffffffffffffffffffff166106e961133d565b73ffffffffffffffffffffffffffffffffffffffff16148061071857506107178161071261133d565b61113a565b5b610757576040517f08c379a000000000000000000000000000000000000000000000000000000000815260040161074e9061336b565b60405180910390fd5b6107618383611345565b505050565b61077761077161133d565b826113fe565b6107b6576040517f08c379a00000000000000000000000000000000000000000000000000000000081526004016107ad906134ab565b60405180910390fd5b6107c18383836114dc565b505050565b606060006107fa6107d684611738565b6040516020016107e6919061317c565b6040516020818303038152906040526118e5565b90506009805490508161080d9190613805565b905060098181548110610849577f4e487b7100000000000000000000000000000000000000000000000000000000600052603260045260246000fd5b90600052602060002001805461085e9061378a565b80601f016020809104026020016040519081016040528092919081815260200182805461088a9061378a565b80156108d75780601f106108ac576101008083540402835291602001916108d7565b820191906000526020600020905b8154815290600101906020018083116108ba57829003601f168201915b5050505050915050919050565b6108ff83838360405180602001604052806000815250610e68565b505050565b6000806002600084815260200190815260200160002060009054906101000a900473ffffffffffffffffffffffffffffffffffffffff169050600073ffffffffffffffffffffffffffffffffffffffff168173ffffffffffffffffffffffffffffffffffffffff1614156109ad576040517f08c379a00000000000000000000000000000000000000000000000000000000081526004016109a4906133ab565b60405180910390fd5b80915050919050565b60008073ffffffffffffffffffffffffffffffffffffffff168273ffffffffffffffffffffffffffffffffffffffff161415610a27576040517f08c379a0000000000000000000000000000000000000000000000000000000008152600401610a1e9061338b565b60405180910390fd5b600360008373ffffffffffffffffffffffffffffffffffffffff1673ffffffffffffffffffffffffffffffffffffffff168152602001908152602001600020549050919050565b606060018054610a7d9061378a565b80601f0160208091040260200160405190810160405280929190818152602001828054610aa99061378a565b8015610af65780601f10610acb57610100808354040283529160200191610af6565b820191906000526020600020905b815481529060010190602001808311610ad957829003601f168201915b5050505050905090565b610b12610b0b61133d565b8383611918565b5050565b6000610b226007611a85565b90506000610b2f826107c6565b90506000610b3c83610d4a565b90506000610b4984610eca565b90506000838383604051602001610b6293929190613093565b60405160208183030381529060405290506000600882604051602001610b899291906130c4565b60405160208183030381529060405290506000610bce83610ba984611a93565b604051602001610bba929190613137565b604051602081830303815290604052611a93565b9050600081604051602001610be3919061319e565b6040516020818303038152906040529050610c326040518060400160405280601581526020017f0a2d2d2d2d2d2d2d2d2d2d2d2d2d2d2d2d2d2d2d2d00000000000000000000008152506111ce565b610c3b816111ce565b610c796040518060400160405280601581526020017f2d2d2d2d2d2d2d2d2d2d2d2d2d2d2d2d2d2d2d2d0a00000000000000000000008152506111ce565b600a341015610cbd576040517f08c379a0000000000000000000000000000000000000000000000000000000008152600401610cb4906134cb565b60405180910390fd5b610cc634611c51565b610cd03389611cea565b610cda8882611eb8565b610ce46007611f2c565b610d07604051806060016040528060258152602001613960602591398933611f42565b7f3afa59230a1a11462bb65bfd300e93c859d124a1b98238b57a3311189111405e3389604051610d38929190613227565b60405180910390a15050505050505050565b60606000610d7e610d5a84611738565b604051602001610d6a9190613115565b6040516020818303038152906040526118e5565b9050600a8054905081610d919190613805565b9050600a8181548110610dcd577f4e487b7100000000000000000000000000000000000000000000000000000000600052603260045260246000fd5b906000526020600020018054610de29061378a565b80601f0160208091040260200160405190810160405280929190818152602001828054610e0e9061378a565b8015610e5b5780601f10610e3057610100808354040283529160200191610e5b565b820191906000526020600020905b815481529060010190602001808311610e3e57829003601f168201915b5050505050915050919050565b610e79610e7361133d565b836113fe565b610eb8576040517f08c379a0000000000000000000000000000000000000000000000000000000008152600401610eaf906134ab565b60405180910390fd5b610ec484848484611fe1565b50505050565b60606000610efe610eda84611738565b604051602001610eea91906130f3565b6040516020818303038152906040526118e5565b9050600b8054905081610f119190613805565b9050600b8181548110610f4d577f4e487b7100000000000000000000000000000000000000000000000000000000600052603260045260246000fd5b906000526020600020018054610f629061378a565b80601f0160208091040260200160405190810160405280929190818152602001828054610f8e9061378a565b8015610fdb5780601f10610fb057610100808354040283529160200191610fdb565b820191906000526020600020905b815481529060010190602001808311610fbe57829003601f168201915b5050505050915050919050565b6060610ff3826112d1565b611032576040517f08c379a00000000000000000000000000000000000000000000000000000000081526004016110299061340b565b60405180910390fd5b60006006600084815260200190815260200160002080546110529061378a565b80601f016020809104026020016040519081016040528092919081815260200182805461107e9061378a565b80156110cb5780601f106110a0576101008083540402835291602001916110cb565b820191906000526020600020905b8154815290600101906020018083116110ae57829003601f168201915b5050505050905060006110dc61203d565b90506000815114156110f2578192505050611135565b60008251111561112757808260405160200161110f92919061306f565b60405160208183030381529060405292505050611135565b61113084612054565b925050505b919050565b6000600560008473ffffffffffffffffffffffffffffffffffffffff1673ffffffffffffffffffffffffffffffffffffffff16815260200190815260200160002060008373ffffffffffffffffffffffffffffffffffffffff1673ffffffffffffffffffffffffffffffffffffffff16815260200190815260200160002060009054906101000a900460ff16905092915050565b611264816040516024016111e2919061326b565b6040516020818303038152906040527f41304fac000000000000000000000000000000000000000000000000000000007bffffffffffffffffffffffffffffffffffffffffffffffffffffffff19166020820180517bffffffffffffffffffffffffffffffffffffffffffffffffffffffff83818316178352505050506120fb565b50565b60007f01ffc9a7000000000000000000000000000000000000000000000000000000007bffffffffffffffffffffffffffffffffffffffffffffffffffffffff1916827bffffffffffffffffffffffffffffffffffffffffffffffffffffffff1916149050919050565b60008073ffffffffffffffffffffffffffffffffffffffff166002600084815260200190815260200160002060009054906101000a900473ffffffffffffffffffffffffffffffffffffffff1673ffffffffffffffffffffffffffffffffffffffff1614159050919050565b600033905090565b816004600083815260200190815260200160002060006101000a81548173ffffffffffffffffffffffffffffffffffffffff021916908373ffffffffffffffffffffffffffffffffffffffff160217905550808273ffffffffffffffffffffffffffffffffffffffff166113b883610904565b73ffffffffffffffffffffffffffffffffffffffff167f8c5be1e5ebec7d5bd14f71427d1e84f3dd0314c0f7b2291e5b200ac8c7c3b92560405160405180910390a45050565b6000611409826112d1565b611448576040517f08c379a000000000000000000000000000000000000000000000000000000000815260040161143f9061334b565b60405180910390fd5b600061145383610904565b90508073ffffffffffffffffffffffffffffffffffffffff168473ffffffffffffffffffffffffffffffffffffffff1614806114c257508373ffffffffffffffffffffffffffffffffffffffff166114aa846105c9565b73ffffffffffffffffffffffffffffffffffffffff16145b806114d357506114d2818561113a565b5b91505092915050565b8273ffffffffffffffffffffffffffffffffffffffff166114fc82610904565b73ffffffffffffffffffffffffffffffffffffffff1614611552576040517f08c379a00000000000000000000000000000000000000000000000000000000081526004016115499061344b565b60405180910390fd5b600073ffffffffffffffffffffffffffffffffffffffff168273ffffffffffffffffffffffffffffffffffffffff1614156115c2576040517f08c379a00000000000000000000000000000000000000000000000000000000081526004016115b99061330b565b60405180910390fd5b6115cd838383612124565b6115d8600082611345565b6001600360008573ffffffffffffffffffffffffffffffffffffffff1673ffffffffffffffffffffffffffffffffffffffff168152602001908152602001600020600082825461162891906136a0565b925050819055506001600360008473ffffffffffffffffffffffffffffffffffffffff1673ffffffffffffffffffffffffffffffffffffffff168152602001908152602001600020600082825461167f91906135bf565b92505081905550816002600083815260200190815260200160002060006101000a81548173ffffffffffffffffffffffffffffffffffffffff021916908373ffffffffffffffffffffffffffffffffffffffff160217905550808273ffffffffffffffffffffffffffffffffffffffff168473ffffffffffffffffffffffffffffffffffffffff167fddf252ad1be2c89b69c2b068fc378daa952ba7f163c4a11628f55a4df523b3ef60405160405180910390a4505050565b60606000821415611780576040518060400160405280600181526020017f300000000000000000000000000000000000000000000000000000000000000081525090506118e0565b600082905060005b600082146117b257808061179b906137bc565b915050600a826117ab9190613615565b9150611788565b60008167ffffffffffffffff8111156117f4577f4e487b7100000000000000000000000000000000000000000000000000000000600052604160045260246000fd5b6040519080825280601f01601f1916602001820160405280156118265781602001600182028036833780820191505090505b5090505b600085146118d95760018261183f91906136a0565b9150600a8561184e9190613805565b603061185a91906135bf565b60f81b818381518110611896577f4e487b7100000000000000000000000000000000000000000000000000000000600052603260045260246000fd5b60200101907effffffffffffffffffffffffffffffffffffffffffffffffffffffffffffff1916908160001a905350600a856118d29190613615565b945061182a565b8093505050505b919050565b6000816040516020016118f89190613058565b6040516020818303038152906040528051906020012060001c9050919050565b8173ffffffffffffffffffffffffffffffffffffffff168373ffffffffffffffffffffffffffffffffffffffff161415611987576040517f08c379a000000000000000000000000000000000000000000000000000000000815260040161197e9061332b565b60405180910390fd5b80600560008573ffffffffffffffffffffffffffffffffffffffff1673ffffffffffffffffffffffffffffffffffffffff16815260200190815260200160002060008473ffffffffffffffffffffffffffffffffffffffff1673ffffffffffffffffffffffffffffffffffffffff16815260200190815260200160002060006101000a81548160ff0219169083151502179055508173ffffffffffffffffffffffffffffffffffffffff168373ffffffffffffffffffffffffffffffffffffffff167f17307eab39ab6107e8899845ad3d59bd9653f200f220920489ca2b5937696c3183604051611a789190613250565b60405180910390a3505050565b600081600001549050919050565b60606000825190506000811415611abc5760405180602001604052806000815250915050611c4c565b60006003600283611acd91906135bf565b611ad79190613615565b6004611ae39190613646565b90506000602082611af491906135bf565b67ffffffffffffffff811115611b33577f4e487b7100000000000000000000000000000000000000000000000000000000600052604160045260246000fd5b6040519080825280601f01601f191660200182016040528015611b655781602001600182028036833780820191505090505b5090506000604051806060016040528060408152602001613985604091399050600181016020830160005b86811015611c095760038101905062ffffff818a015116603f8160121c168401518060081b905060ff603f83600c1c1686015116810190508060081b905060ff603f8360061c1686015116810190508060081b905060ff603f831686015116810190508060e01b90508084526004840193505050611b90565b506003860660018114611c235760028114611c3357611c3e565b613d3d60f01b6002830352611c3e565b603d60f81b60018303525b508484525050819450505050505b919050565b611ce781604051602401611c6591906134eb565b6040516020818303038152906040527ff5b1bba9000000000000000000000000000000000000000000000000000000007bffffffffffffffffffffffffffffffffffffffffffffffffffffffff19166020820180517bffffffffffffffffffffffffffffffffffffffffffffffffffffffff83818316178352505050506120fb565b50565b600073ffffffffffffffffffffffffffffffffffffffff168273ffffffffffffffffffffffffffffffffffffffff161415611d5a576040517f08c379a0000000000000000000000000000000000000000000000000000000008152600401611d51906133eb565b60405180910390fd5b611d63816112d1565b15611da3576040517f08c379a0000000000000000000000000000000000000000000000000000000008152600401611d9a906132eb565b60405180910390fd5b611daf60008383612124565b6001600360008473ffffffffffffffffffffffffffffffffffffffff1673ffffffffffffffffffffffffffffffffffffffff1681526020019081526020016000206000828254611dff91906135bf565b92505081905550816002600083815260200190815260200160002060006101000a81548173ffffffffffffffffffffffffffffffffffffffff021916908373ffffffffffffffffffffffffffffffffffffffff160217905550808273ffffffffffffffffffffffffffffffffffffffff16600073ffffffffffffffffffffffffffffffffffffffff167fddf252ad1be2c89b69c2b068fc378daa952ba7f163c4a11628f55a4df523b3ef60405160405180910390a45050565b611ec1826112d1565b611f00576040517f08c379a0000000000000000000000000000000000000000000000000000000008152600401611ef7906133cb565b60405180910390fd5b80600660008481526020019081526020016000209080519060200190611f279291906122d3565b505050565b6001816000016000828254019250508190555050565b611fdc838383604051602401611f5a9392919061328d565b6040516020818303038152906040527fe3849f79000000000000000000000000000000000000000000000000000000007bffffffffffffffffffffffffffffffffffffffffffffffffffffffff19166020820180517bffffffffffffffffffffffffffffffffffffffffffffffffffffffff83818316178352505050506120fb565b505050565b611fec8484846114dc565b611ff884848484612129565b612037576040517f08c379a000000000000000000000000000000000000000000000000000000000815260040161202e906132cb565b60405180910390fd5b50505050565b606060405180602001604052806000815250905090565b606061205f826112d1565b61209e576040517f08c379a00000000000000000000000000000000000000000000000000000000081526004016120959061346b565b60405180910390fd5b60006120a861203d565b905060008151116120c857604051806020016040528060008152506120f3565b806120d284611738565b6040516020016120e392919061306f565b6040516020818303038152906040525b915050919050565b60008151905060006a636f6e736f6c652e6c6f679050602083016000808483855afa5050505050565b505050565b600061214a8473ffffffffffffffffffffffffffffffffffffffff166122c0565b156122b3578373ffffffffffffffffffffffffffffffffffffffff1663150b7a0261217361133d565b8786866040518563ffffffff1660e01b815260040161219594939291906131db565b602060405180830381600087803b1580156121af57600080fd5b505af19250505080156121e057506040513d601f19601f820116820180604052508101906121dd9190612617565b60015b612263573d8060008114612210576040519150601f19603f3d011682016040523d82523d6000602084013e612215565b606091505b5060008151141561225b576040517f08c379a0000000000000000000000000000000000000000000000000000000008152600401612252906132cb565b60405180910390fd5b805181602001fd5b63150b7a0260e01b7bffffffffffffffffffffffffffffffffffffffffffffffffffffffff1916817bffffffffffffffffffffffffffffffffffffffffffffffffffffffff1916149150506122b8565b600190505b949350505050565b600080823b905060008111915050919050565b8280546122df9061378a565b90600052602060002090601f0160209004810192826123015760008555612348565b82601f1061231a57805160ff1916838001178555612348565b82800160010185558215612348579182015b8281111561234757825182559160200191906001019061232c565b5b5090506123559190612359565b5090565b5b8082111561237257600081600090555060010161235a565b5090565b600061238961238484613537565b613506565b9050828152602081018484840111156123a157600080fd5b6123ac848285613748565b509392505050565b6000813590506123c381613903565b92915050565b6000813590506123d88161391a565b92915050565b6000813590506123ed81613931565b92915050565b60008151905061240281613931565b92915050565b600082601f83011261241957600080fd5b8135612429848260208601612376565b91505092915050565b60008135905061244181613948565b92915050565b60006020828403121561245957600080fd5b6000612467848285016123b4565b91505092915050565b6000806040838503121561248357600080fd5b6000612491858286016123b4565b92505060206124a2858286016123b4565b9150509250929050565b6000806000606084860312156124c157600080fd5b60006124cf868287016123b4565b93505060206124e0868287016123b4565b92505060406124f186828701612432565b9150509250925092565b6000806000806080858703121561251157600080fd5b600061251f878288016123b4565b9450506020612530878288016123b4565b935050604061254187828801612432565b925050606085013567ffffffffffffffff81111561255e57600080fd5b61256a87828801612408565b91505092959194509250565b6000806040838503121561258957600080fd5b6000612597858286016123b4565b92505060206125a8858286016123c9565b9150509250929050565b600080604083850312156125c557600080fd5b60006125d3858286016123b4565b92505060206125e485828601612432565b9150509250929050565b60006020828403121561260057600080fd5b600061260e848285016123de565b91505092915050565b60006020828403121561262957600080fd5b6000612637848285016123f3565b91505092915050565b60006020828403121561265257600080fd5b600061266084828501612432565b91505092915050565b612672816136d4565b82525050565b612681816136e6565b82525050565b60006126928261357c565b61269c8185613592565b93506126ac818560208601613757565b6126b5816138f2565b840191505092915050565b60006126cb82613587565b6126d581856135a3565b93506126e5818560208601613757565b6126ee816138f2565b840191505092915050565b600061270482613587565b61270e81856135b4565b935061271e818560208601613757565b80840191505092915050565b600081546127378161378a565b61274181866135b4565b9450600182166000811461275c576001811461276d576127a0565b60ff198316865281860193506127a0565b61277685613567565b60005b8381101561279857815481890152600182019150602081019050612779565b838801955050505b50505092915050565b60006127b66054836135b4565b91507f222c20226465736372697074696f6e223a2022596f7572206f776e205765622060008301527f446576656c6f706572203a4420222c2022696d616765223a2022646174613a6960208301527f6d6167652f7376672b786d6c3b6261736536342c0000000000000000000000006040830152605482019050919050565b60006128426032836135a3565b91507f4552433732313a207472616e7366657220746f206e6f6e20455243373231526560008301527f63656976657220696d706c656d656e74657200000000000000000000000000006020830152604082019050919050565b60006128a8601c836135a3565b91507f4552433732313a20746f6b656e20616c7265616479206d696e746564000000006000830152602082019050919050565b60006128e8600a836135b4565b91507f54484952445f574f5244000000000000000000000000000000000000000000006000830152600a82019050919050565b60006129286024836135a3565b91507f4552433732313a207472616e7366657220746f20746865207a65726f2061646460008301527f72657373000000000000000000000000000000000000000000000000000000006020830152604082019050919050565b600061298e6019836135a3565b91507f4552433732313a20617070726f766520746f2063616c6c6572000000000000006000830152602082019050919050565b60006129ce600b836135b4565b91507f5345434f4e445f574f52440000000000000000000000000000000000000000006000830152600b82019050919050565b6000612a0e602c836135a3565b91507f4552433732313a206f70657261746f7220717565727920666f72206e6f6e657860008301527f697374656e7420746f6b656e00000000000000000000000000000000000000006020830152604082019050919050565b6000612a74600d836135b4565b91507f3c2f746578743e3c2f7376673e000000000000000000000000000000000000006000830152600d82019050919050565b6000612ab46038836135a3565b91507f4552433732313a20617070726f76652063616c6c6572206973206e6f74206f7760008301527f6e6572206e6f7220617070726f76656420666f7220616c6c00000000000000006020830152604082019050919050565b6000612b1a602a836135a3565b91507f4552433732313a2062616c616e636520717565727920666f7220746865207a6560008301527f726f2061646472657373000000000000000000000000000000000000000000006020830152604082019050919050565b6000612b806029836135a3565b91507f4552433732313a206f776e657220717565727920666f72206e6f6e657869737460008301527f656e7420746f6b656e00000000000000000000000000000000000000000000006020830152604082019050919050565b6000612be6602e836135a3565b91507f45524337323155524953746f726167653a2055524920736574206f66206e6f6e60008301527f6578697374656e7420746f6b656e0000000000000000000000000000000000006020830152604082019050919050565b6000612c4c6002836135b4565b91507f227d0000000000000000000000000000000000000000000000000000000000006000830152600282019050919050565b6000612c8c6020836135a3565b91507f4552433732313a206d696e7420746f20746865207a65726f20616464726573736000830152602082019050919050565b6000612ccc6031836135a3565b91507f45524337323155524953746f726167653a2055524920717565727920666f722060008301527f6e6f6e6578697374656e7420746f6b656e0000000000000000000000000000006020830152604082019050919050565b6000612d32602c836135a3565b91507f4552433732313a20617070726f76656420717565727920666f72206e6f6e657860008301527f697374656e7420746f6b656e00000000000000000000000000000000000000006020830152604082019050919050565b6000612d986029836135a3565b91507f4552433732313a207472616e73666572206f6620746f6b656e2074686174206960008301527f73206e6f74206f776e00000000000000000000000000000000000000000000006020830152604082019050919050565b6000612dfe602f836135a3565b91507f4552433732314d657461646174613a2055524920717565727920666f72206e6f60008301527f6e6578697374656e7420746f6b656e00000000000000000000000000000000006020830152604082019050919050565b6000612e64600a836135b4565b91507f7b226e616d65223a2022000000000000000000000000000000000000000000006000830152600a82019050919050565b6000612ea46021836135a3565b91507f4552433732313a20617070726f76616c20746f2063757272656e74206f776e6560008301527f72000000000000000000000000000000000000000000000000000000000000006020830152604082019050919050565b6000612f0a600a836135b4565b91507f46495253545f574f5244000000000000000000000000000000000000000000006000830152600a82019050919050565b6000612f4a601d836135b4565b91507f646174613a6170706c69636174696f6e2f6a736f6e3b6261736536342c0000006000830152601d82019050919050565b6000612f8a6031836135a3565b91507f4552433732313a207472616e736665722063616c6c6572206973206e6f74206f60008301527f776e6572206e6f7220617070726f7665640000000000000000000000000000006020830152604082019050919050565b6000612ff06021836135a3565b91507f4e6f7420656e6f756768204554482073656e743b20636865636b20707269636560008301527f21000000000000000000000000000000000000000000000000000000000000006020830152604082019050919050565b6130528161373e565b82525050565b600061306482846126f9565b915081905092915050565b600061307b82856126f9565b915061308782846126f9565b91508190509392505050565b600061309f82866126f9565b91506130ab82856126f9565b91506130b782846126f9565b9150819050949350505050565b60006130d0828561272a565b91506130dc82846126f9565b91506130e782612a67565b91508190509392505050565b60006130fe826128db565b915061310a82846126f9565b915081905092915050565b6000613120826129c1565b915061312c82846126f9565b915081905092915050565b600061314282612e57565b915061314e82856126f9565b9150613159826127a9565b915061316582846126f9565b915061317082612c3f565b91508190509392505050565b600061318782612efd565b915061319382846126f9565b915081905092915050565b60006131a982612f3d565b91506131b582846126f9565b915081905092915050565b60006020820190506131d56000830184612669565b92915050565b60006080820190506131f06000830187612669565b6131fd6020830186612669565b61320a6040830185613049565b818103606083015261321c8184612687565b905095945050505050565b600060408201905061323c6000830185612669565b6132496020830184613049565b9392505050565b60006020820190506132656000830184612678565b92915050565b6000602082019050818103600083015261328581846126c0565b905092915050565b600060608201905081810360008301526132a781866126c0565b90506132b66020830185613049565b6132c36040830184612669565b949350505050565b600060208201905081810360008301526132e481612835565b9050919050565b600060208201905081810360008301526133048161289b565b9050919050565b600060208201905081810360008301526133248161291b565b9050919050565b6000602082019050818103600083015261334481612981565b9050919050565b6000602082019050818103600083015261336481612a01565b9050919050565b6000602082019050818103600083015261338481612aa7565b9050919050565b600060208201905081810360008301526133a481612b0d565b9050919050565b600060208201905081810360008301526133c481612b73565b9050919050565b600060208201905081810360008301526133e481612bd9565b9050919050565b6000602082019050818103600083015261340481612c7f565b9050919050565b6000602082019050818103600083015261342481612cbf565b9050919050565b6000602082019050818103600083015261344481612d25565b9050919050565b6000602082019050818103600083015261346481612d8b565b9050919050565b6000602082019050818103600083015261348481612df1565b9050919050565b600060208201905081810360008301526134a481612e97565b9050919050565b600060208201905081810360008301526134c481612f7d565b9050919050565b600060208201905081810360008301526134e481612fe3565b9050919050565b60006020820190506135006000830184613049565b92915050565b6000604051905081810181811067ffffffffffffffff8211171561352d5761352c6138c3565b5b8060405250919050565b600067ffffffffffffffff821115613552576135516138c3565b5b601f19601f8301169050602081019050919050565b60008190508160005260206000209050919050565b600081519050919050565b600081519050919050565b600082825260208201905092915050565b600082825260208201905092915050565b600081905092915050565b60006135ca8261373e565b91506135d58361373e565b9250827fffffffffffffffffffffffffffffffffffffffffffffffffffffffffffffffff0382111561360a57613609613836565b5b828201905092915050565b60006136208261373e565b915061362b8361373e565b92508261363b5761363a613865565b5b828204905092915050565b60006136518261373e565b915061365c8361373e565b9250817fffffffffffffffffffffffffffffffffffffffffffffffffffffffffffffffff048311821515161561369557613694613836565b5b828202905092915050565b60006136ab8261373e565b91506136b68361373e565b9250828210156136c9576136c8613836565b5b828203905092915050565b60006136df8261371e565b9050919050565b60008115159050919050565b60007fffffffff0000000000000000000000000000000000000000000000000000000082169050919050565b600073ffffffffffffffffffffffffffffffffffffffff82169050919050565b6000819050919050565b82818337600083830152505050565b60005b8381101561377557808201518184015260208101905061375a565b83811115613784576000848401525b50505050565b600060028204905060018216806137a257607f821691505b602082108114156137b6576137b5613894565b5b50919050565b60006137c78261373e565b91507fffffffffffffffffffffffffffffffffffffffffffffffffffffffffffffffff8214156137fa576137f9613836565b5b600182019050919050565b60006138108261373e565b915061381b8361373e565b92508261382b5761382a613865565b5b828206905092915050565b7f4e487b7100000000000000000000000000000000000000000000000000000000600052601160045260246000fd5b7f4e487b7100000000000000000000000000000000000000000000000000000000600052601260045260246000fd5b7f4e487b7100000000000000000000000000000000000000000000000000000000600052602260045260246000fd5b7f4e487b7100000000000000000000000000000000000000000000000000000000600052604160045260246000fd5b6000601f19601f8301169050919050565b61390c816136d4565b811461391757600080fd5b50565b613923816136e6565b811461392e57600080fd5b50565b61393a816136f2565b811461394557600080fd5b50565b6139518161373e565b811461395c57600080fd5b5056fe416e204e465420772f20494420257320686173206265656e206d696e74656420746f2025734142434445464748494a4b4c4d4e4f505152535455565758595a6162636465666768696a6b6c6d6e6f707172737475767778797a303132333435363738392b2fa2646970667358221220246fcb74f5e5f9d0ff71482376bd0c5b904c54237dc1f479208912dae98e4d0d64736f6c634300080000333c73766720786d6c6e733d27687474703a2f2f7777772e77332e6f72672f323030302f73766727207072657365727665417370656374526174696f3d27784d696e594d696e206d656574272076696577426f783d273020302033353020333530273e3c7374796c653e2e62617365207b2066696c6c3a2077686974653b20666f6e742d66616d696c793a2073657269663b20666f6e742d73697a653a20323470783b207d3c2f7374796c653e3c726563742077696474683d273130302527206865696768743d2731303025272066696c6c3d27626c61636b27202f3e3c7465787420783d273530252720793d273530252720636c6173733d27626173652720646f6d696e616e742d626173656c696e653d276d6964646c652720746578742d616e63686f723d276d6964646c65273e",
  "linkReferences": {},
  "deployedLinkReferences": {}
}